:100000000C9463000C948B000C948B000C948B006C
:100010000C948B000C948B000C948B000C948B0034
:100020000C948B000C948B000C948B000C948B0024
:100030000C948B000C948B000C948B000C948B0014
:100040000C9470030C948B000C94FE010C948B00A8
:100050000C948B000C948B000C948B000C948B00F4
:100060000C948B000C948B000000000024002700EF
:100070002A0000000000250028002B0000000000DE
:1000800023002600290004040404040404040202DA
:100090000202020203030303030301020408102007
:1000A0004080010204081020010204081020000012
:1000B0000007000201000003040600000000000029
:1000C00000007301FF0211241FBECFEFD4E0DEBF9A
:1000D000CDBF11E0A0E0B1E0E4E2FAE002C005909B
:1000E0000D92A630B107D9F711E0A6E0B1E001C04A
:1000F0001D92A83BB107E1F710E0C6ECD0E004C0C8
:100100002297FE010E940C05C23CD107C9F70E944C
:10011000F7010C9410050C940000FC018827992726
:10012000E89421912032E9F3293010F02E30C8F301
:100130002B3241F02D3239F4689404C00E94AB0098
:10014000820F911D219120532A30C0F31EF4909507
:1001500081959F4F08957AE0979F902D879F802DDE
:10016000910D11240895FC0110828FEF8183089571
:10017000EF92FF920F931F93CF93DF93EC019B01BC
:1001800077FF03C020E030E005C0653B710514F047
:1001900024EB30E02983EA806B8170E06E197109ED
:1001A000882777FD8095982F982F872F762F6627A1
:1001B00030E040E050E00E94870424EB30E040E073
:1001C00050E00E94DB04FF2400E010E0102F0F2D10
:1001D000FE2CEE24E20EF31E041F151FC801B7010A
:1001E00028E030E040E050E00E94DB048881893064
:1001F00029F4309389002093880006C08A3021F4C6
:1002000030938B0020938A00DF91CF911F910F9143
:10021000FF90EF900895CF93DF93EC01FB01CB01AA
:100220000997029710F080E054C0CA0160E170E0C5
:100230000E94A6046A83C90160E170E00E94A604DE
:100240006B83E8838FEF89838E2F60E00E943A04EE
:10025000888161E00E941A0480910601882311F5CB
:10026000809107018823F1F42FB7F89482E08093FE
:1002700080008AE18093810088EB9BE09093890065
:100280008093880090938B0080938A0080E49CE99F
:10029000909387008093860080916F00887F809381
:1002A0006F002FBF8881893041F481E0809306017F
:1002B000809180008F73806809C08A3049F481E0A2
:1002C00080930701809180008F7C80628093800002
:1002D00081E0DF91CF91089540E252E020E639E0DD
:1002E0000E940B01089588E091E00E94B3008CE029
:1002F00091E00E94B30008951F938AE991E00E9463
:10030000A402882309F442C08AE991E00E94B8025D
:10031000182F813671F48AE991E060E171E00E9462
:10032000650380E191E00E948D00BC0188E091E0CE
:1003300012C08236B1F48AE991E060E171E00E9476
:10034000650380E191E00E948D00BC018C33910532
:1003500024F08CE091E00E94B800109215011092F8
:100360001401812F8156823068F0809114019091A0
:100370001501FC01E05FFE4F10830196909315017B
:10038000809314018AE991E00E94E0021F91089590
:10039000EF92FF920F931F938AE991E040E855E2B4
:1003A00060E070E00E943B0288E0E82E81E0F82ED9
:1003B000C70168E070E00E946C010CE011E0C80128
:1003C00069E070E00E946C01C7016AE570E00E947C
:1003D000B800C8016AE570E00E94B80010921501EB
:1003E000109214011F910F91FF90EF9008950E94B9
:1003F000E0030E94C8010E947C01FDCF1F920F9272
:100400000FB60F9211242F933F934F935F936F93E7
:100410007F938F939F93AF93BF93EF93FF934091FD
:10042000C600E0919601F0919701CF01019660E836
:1004300070E00E94A6049C0180919801909199011E
:100440002817390739F0EA5EFE4F40833093970151
:1004500020939601FF91EF91BF91AF919F918F9162
:100460007F916F915F914F913F912F910F900FBEB0
:100470000F901F901895AF92BF92CF92DF92EF929C
:10048000FF920F931F93CF93DF936C017A018B013F
:10049000DC011496AD90BC901597CB01BA0122E017
:1004A00030E040E050E00E94DB04205C3D4B404FD8
:1004B0005F4FCA01B901A80197010E94DB04C9017D
:1004C000DA010197A109B109292F3A2F4B2F55279E
:1004D00047FD5A950196A11DB11DE5012883E6014E
:1004E000EE81FF8181508083EA85FB85208141E098
:1004F00050E0CA010E8402C0880F991F0A94E2F7E7
:10050000282B2083EA85FB852081CA010F8402C045
:10051000880F991F0A94E2F7282B2083EA85FB8530
:100520008081088802C0440F551F0A94E2F7842B8B
:100530008083DF91CF911F910F91FF90EF90DF901B
:10054000CF90BF90AF900895DC011296ED91FC9191
:100550001397E058FF4F8191919180589F4F2081D0
:100560003181821B930B60E870E00E94A60408951D
:10057000CF93DF93DC011296ED91FC911397EF017D
:10058000CE57DF4F48815981E058FF4F80819181DC
:10059000E058F0408417950719F42FEF3FEF0CC097
:1005A000E40FF51F2081CA01019660E870E00E9407
:1005B000A6049983888330E0C901DF91CF91089523
:1005C000DC011296ED91FC911397EE57FF4F80815D
:1005D0009181929382930895FC01A085B185218930
:1005E0008C9190E0022E02C0959587950A94E2F7CF
:1005F00080FFF6CF0484F585E02D6083089584E0C4
:1006000091E090939B0180939A0186E191E0909311
:100610009D0180939C0185EC90E090939F018093D5
:100620009E0184EC90E09093A1018093A00180EC66
:1006300090E09093A3018093A20181EC90E09093CD
:10064000A5018093A40186EC90E09093A70180938C
:10065000A60184E08093A80183E08093A90187E04C
:100660008093AA0185E08093AB0108950F931F93B7
:10067000CF93DF938C01EB0109C02196D801ED9156
:10068000FC910190F081E02DC801099568816623F5
:10069000A1F7DF91CF911F910F9108950F931F93B1
:1006A0008C01DC01ED91FC910190F081E02D6DE079
:1006B0000995D801ED91FC910190F081E02DC801E0
:1006C0006AE009951F910F9108950F931F938C0174
:1006D0000E943603C8010E944E031F910F91089596
:1006E0001F920F920FB60F9211242F938F939F9307
:1006F000AF93BF938091AC019091AD01A091AE01F9
:10070000B091AF010196A11DB11D8093AC019093F2
:10071000AD01A093AE01B093AF018091B001909173
:10072000B101A091B201B091B3018050904CAF4F94
:10073000BF4F8093B0019093B101A093B201B093E9
:10074000B30127C08091B0019091B101A091B20195
:10075000B091B30180589E43A040B0408093B00157
:100760009093B101A093B201B093B3018091B40111
:100770009091B501A091B601B091B7010196A11D6C
:10078000B11D8093B4019093B501A093B601B093CD
:10079000B7018091B0019091B101A091B201B091E7
:1007A000B30181589E43A040B04060F6BF91AF9125
:1007B0009F918F912F910F900FBE0F901F901895C2
:1007C000789484B5826084BD84B5816084BD85B52C
:1007D000826085BD85B5816085BDEEE6F0E08081F3
:1007E00081608083E1E8F0E08081826080838081A5
:1007F00081608083E0E8F0E0808181608083E1EBCC
:10080000F0E0808184608083E0EBF0E080818160B3
:100810008083EAE7F0E08081846080838081826069
:100820008083808181608083808180688083109252
:10083000C1000895282F30E0C90186569F4FFC0162
:1008400094912A573F4FF9018491882391F0E82F22
:10085000F0E0EE0FFF1FE859FF4FA591B49166231A
:1008600029F48C91909589238C9308958C91892BF0
:100870008C930895482F50E0CA0182559F4FFC0188
:100880002491CA0186569F4FFC0194914A575F4FAD
:10089000FA0134913323D1F1222331F1233021F4B1
:1008A000809180008F7705C0243031F480918000E2
:1008B0008F7D8093800018C0213019F484B58F7724
:1008C00004C0223021F484B58F7D84BD0DC0263054
:1008D00021F48091B0008F7705C0273029F48091F2
:1008E000B0008F7D8093B000E32FF0E0EE0FFF1F8C
:1008F000EE58FF4FA591B491662329F48C91909501
:1009000089238C9308958C91892B8C930895629FF1
:10091000D001739FF001829FE00DF11D649FE00DF7
:10092000F11D929FF00D839FF00D749FF00D659F58
:10093000F00D9927729FB00DE11DF91F639FB00D57
:10094000E11DF91FBD01CF011124089597FB092E68
:1009500007260AD077FD04D049D006D000201AF42B
:10096000709561957F4F0895F6F7909581959F4F0B
:100970000895A1E21A2EAA1BBB1BFD010DC0AA1FE0
:10098000BB1FEE1FFF1FA217B307E407F50720F0F8
:10099000A21BB30BE40BF50B661F771F881F991F73
:1009A0001A9469F760957095809590959B01AC01BC
:1009B000BD01CF01089597FB092E05260ED057FDE6
:1009C00004D0D7DF0AD0001C38F4509540953095FC
:1009D00021953F4F4F4F5F4F0895F6F790958095C3
:1009E000709561957F4F8F4F9F4F0895AA1BBB1B3A
:1009F00051E107C0AA1FBB1FA617B70710F0A61B1F
:100A0000B70B881F991F5A95A9F780959095BC013F
:100A1000CD010895EE0FFF1F0590F491E02D09948C
:040A2000F894FFCF78
:060A240000000000EC02DE
:00000001FF
