:100000000C9463000C948B000C948B000C948B006C
:100010000C948B000C948B000C948B000C948B0034
:100020000C948B000C948B000C948B000C948B0024
:100030000C948B000C948B000C948B000C948B0014
:100040000C94C9060C948B000C94D0040C948B0077
:100050000C948B000C948B000C948B000C948B00F4
:100060000C9498020C948B000000000024002700E0
:100070002A0000000000250028002B0000000000DE
:1000800023002600290004040404040404040202DA
:100090000202020203030303030301020408102007
:1000A0004080010204081020010204081020000012
:1000B0000007000201000003040600000000000029
:1000C00000000B02890511241FBECFEFD4E0DEBF74
:1000D000CDBF11E0A0E0B1E0ECEEF0E102C0059090
:1000E0000D92A432B107D9F711E0A4E2B1E001C04A
:1000F0001D92AE3EB107E1F710E0C6ECD0E004C0BF
:100100002297FE010E947008C23CD107C9F70E94E5
:10011000C9040C9474080C9400000F931F93CF93A0
:10012000DF93689F8001699F100D789F100D112447
:10013000C8010E94A900EC01009729F060E070E07E
:10014000A8010E94AB01CE01DF91CF911F910F91C9
:100150000895CF93DF93BC018230910510F462E0E3
:1001600070E0A091EC01B091ED01ED01E0E0F0E074
:1001700040E050E021C0888199818617970769F493
:100180008A819B81309719F09383828304C0909376
:10019000ED018093EC01FE0134C06817790738F453
:1001A0004115510519F08417950708F4AC01FE01BB
:1001B0008A819B819C01E9012097E9F6411551054F
:1001C000A9F1CA01861B970B049708F4BA01E0E075
:1001D000F0E02AC08D919C91119784179507F9F44E
:1001E0006417750781F412968D919C91139730973F
:1001F00019F09383828304C09093ED018093EC0106
:10020000FD0132964CC0CA01861B970BFD01E80F19
:10021000F91F6193719302978D939C9340C0FD01E8
:10022000828193819C01D9011097A1F68091EA0106
:100230009091EB01892B41F48091190190911A0161
:100240009093EB018093EA0140911B0150911C01B6
:100250004115510541F44DB75EB78091170190915A
:100260001801481B590B2091EA013091EB01CA019A
:10027000821B930B8617970780F0AB014E5F5F4F91
:100280008417950750F0420F531F5093EB01409392
:10029000EA01F9016193719302C0E0E0F0E0CF015F
:1002A000DF91CF910895CF93DF93009709F450C069
:1002B000EC0122971B821A82A091EC01B091ED0112
:1002C000109709F140E050E0AC17BD0708F1BB837F
:1002D000AA83FE0121913191E20FF31FAE17BF07F0
:1002E00079F48D919C911197280F391F2E5F3F4F04
:1002F0003983288312968D919C9113979B838A83CF
:100300004115510571F4D093ED01C093EC0120C06B
:1003100012968D919C911397AD01009711F0DC011D
:10032000D3CFFA01D383C28321913191E20FF31F1E
:10033000CE17DF0769F488819981280F391F2E5F56
:100340003F4FFA01318320838A819B81938382838B
:10035000DF91CF910895DC0101C06D934150504071
:10036000E0F708958091270190912601891B089557
:100370009091260180912701981710F080E0089550
:10038000E0912401F0912501E90FF11D80819F5F2B
:100390009093260108959C0180912F019091300146
:1003A000892B11F190912601809127019817E0F097
:1003B00090E00BC0E0912401F0912501EA0FFB1FB2
:1003C000A20FB31F8C9180839F5FA92FB0E0A61767
:1003D000B70784F31092260160932701E0912F0163
:1003E000F0913001CB0109950895E0912D01F09134
:1003F0002E01309729F010922A0110922B010995B5
:1004000008957093300160932F01089570932E0129
:1004100060932D0108950895DF93CF930F92CDB788
:10042000DEB7698380912C018823A9F080912B018C
:100430008032B0F480912A01E0912801F0912901E5
:10044000E80FF11D608380912A018F5F80932A015C
:1004500080932B0105C0CE01019661E00E947102DC
:100460000F90CF91DF9108950E940C02089580E2D1
:1004700090E061E070E00E948D00809324019093F1
:100480002501109226011092270180E290E061E0A0
:1004900070E00E948D0080932801909329011092B2
:1004A0002A0110922B010E941A0408950F931F93A2
:1004B0008C01862F0E946D0285EF91E00E949302CD
:1004C0008BEC91E00E948E02C8010E9437021F91BE
:1004D0000F9108950E9456020895880F8093BA00E4
:1004E0000895482F613210F081E008958091320123
:1004F000843011F082E0089560933F01A0913C01A7
:10050000B0913D01842F9C01F90102C081918D932E
:100510008E2F841B8617D0F380E0089590933701C7
:1005200080933601089590933501809334010895A6
:100530001F920F920FB60F9211242F933F934F9358
:100540005F936F937F938F939F93AF93BF93EF933B
:10055000FF938091B90090E0887F9070803691057C
:1005600009F4E2C081369105CCF58832910509F491
:100570007BC089329105B4F48031910509F46FC0D4
:10058000813191053CF4009709F438C1089709F0CE
:1005900040C165C08831910509F466C0809709F0B3
:1005A00038C17FC08034910509F4A3C0813491051E
:1005B00044F48033910509F47FC0C89709F029C13C
:1005C00086C08035910509F486C08835910509F407
:1005D00095C08834910509F01CC19EC088399105E9
:1005E00009F404C189399105ECF48837910509F4BF
:1005F0009BC0893791054CF48836910509F494C065
:100600008037910509F005C18FC08838910509F43C
:10061000EDC08039910509F48DC08038910509F04D
:10062000F8C088C0803B910509F4B2C0813B9105B8
:100630004CF4803A910509F491C0883A910509F08B
:10064000E8C0A6C0803C910509F4D4C0883C91055F
:1006500009F4D0C0883B910509F0DBC0B1C080919E
:1006600033018093BB00C0C090913A0180913B015F
:10067000981778F490913A01E0913801F09139019E
:10068000E90FF11D80818093BB009F5F90933A0139
:10069000ABC085ED8093BC008091BC0084FDFCCF95
:1006A000B6C080E28093430185ED8093BC008091C9
:1006B000BC0084FDFCCFABC080E38093430185ED9B
:1006C0008093BC008091BC0084FDFCCFA0C088E377
:1006D000809343018FC080913A019091BB00E091DB
:1006E0003801F0913901E80FF11D90838F5F8093FD
:1006F0003A0190913A0180913B0174C080913A0196
:100700009091BB00E0913801F0913901E80FF11DA3
:1007100090838F5F80933A0185ED8093BC00809138
:10072000BC0084FDFCCF73C083E080933201109243
:1007300042015AC080914201803208F057C0809136
:1007400042019091BB00E0914001F0914101E80F1E
:10075000F11D90838F5F8093420146C080914201DA
:10076000803248F480914201E0914001F0914101D2
:10077000E80FF11D108260914201E0913601F09185
:100780003701809140019091410170E0099532C09C
:1007900084E08093320110923E0110923F01E0917B
:1007A0003401F0913501099580913F01882341F48E
:1007B00081E080933F01E0913C01F0913D01108286
:1007C00090913E01E0913C01F0913D01E90FF11D56
:1007D00080818093BB009F5F90933E0190913E018A
:1007E00080913F01981710F485EC01C085E8809353
:1007F000BC000FC085EC8093BC0009C0109243017F
:1008000085ED8093BC008091BC0084FDFCCF1092EC
:100810003201FF91EF91BF91AF919F918F917F91A5
:100820006F915F914F913F912F910F900FBE0F905D
:100830001F90189510923201449A459AE9EBF0E026
:1008400080818E7F808380818D7F808388E4809308
:10085000B80085E48093BC0080E290E061E070E045
:100860000E948D00809338019093390180E290E0DE
:1008700061E070E00E948D0080933C0190933D0107
:1008800080E290E061E070E00E948D008093400182
:10089000909341010895609144017091450181E375
:1008A00091E00E9434020895CF93DF9334C081E336
:1008B00091E00E94B80180934401109245018CECB4
:1008C00091E060E071E00E94C00560914401709188
:1008D00045018CEC91E00E94B906C0914401D09191
:1008E0004501C130D105B9F480914601909147018D
:1008F000892B49F48DE061E00E94BD07D093470148
:10090000C093460108C08DE060E00E94BD071092D0
:1009100047011092460181E391E00E94B2018823D1
:1009200031F6DF91CF91089564E670E080E090E0C9
:100930000E9439070895EF92FF920F931F938DE065
:1009400061E00E949D078CECE82E81E0F82EC70143
:1009500040E855E260E070E00E940D0501E311E01F
:10096000C80164E070E00E946A02C80164E574E0B6
:100970000E940102C8016BE474E00E940602C701F4
:1009800060E171E00E94EF051F910F91FF90EF90E1
:1009900008950E9463070E949B040E949404FDCF67
:1009A0001F920F920FB60F9211242F933F934F93E4
:1009B0005F936F937F938F939F93AF93BF93EF93C7
:1009C000FF934091C600E091C801F091C901CF01A9
:1009D000019660E870E00E940A089C018091CA01BB
:1009E0009091CB012817390739F0E85BFE4F40831F
:1009F0003093C9012093C801FF91EF91BF91AF914E
:100A00009F918F917F916F915F914F913F912F9126
:100A10000F900FBE0F901F901895AF92BF92CF927C
:100A2000DF92EF92FF920F931F93CF93DF936C01AE
:100A30007A018B01DC011496AD90BC901597CB0127
:100A4000BA0122E030E040E050E00E943F08205C24
:100A50003D4B404F5F4FCA01B901A80197010E9469
:100A60003F08C901DA010197A109B109292F3A2FDD
:100A70004B2F552747FD5A950196A11DB11DE50144
:100A80002883E601EE81FF8181508083EA85FB8522
:100A9000208141E050E0CA010E8402C0880F991FF6
:100AA0000A94E2F7282B2083EA85FB852081CA017E
:100AB0000F8402C0880F991F0A94E2F7282B208325
:100AC000EA85FB858081088802C0440F551F0A947F
:100AD000E2F7842B8083DF91CF911F910F91FF90DC
:100AE000EF90DF90CF90BF90AF900895FC01A0856C
:100AF000B18521898C9190E0022E02C09595879551
:100B00000A94E2F780FFF6CF0484F585E02D608338
:100B1000089581E291E09093CD018093CC0188E427
:100B200091E09093CF018093CE0185EC90E090937B
:100B3000D1018093D00184EC90E09093D301809315
:100B4000D20180EC90E09093D5018093D40181ECA8
:100B500090E09093D7018093D60186EC90E090933B
:100B6000D9018093D80184E08093DA0183E08093F7
:100B7000DB0187E08093DC0185E08093DD0108954F
:100B80000F931F93CF93DF938C01EB0109C0219644
:100B9000D801ED91FC910190F081E02DC8010995FB
:100BA00068816623A1F7DF91CF911F910F9108957E
:100BB0000F931F938C01DC01ED91FC910190F0816A
:100BC000E02D6DE00995D801ED91FC910190F08147
:100BD000E02DC8016AE009951F910F9108950F93C8
:100BE0001F938C010E94C005C8010E94D8051F9167
:100BF0000F9108952F923F924F925F926F927F9242
:100C00008F929F92AF92BF92CF92DF92EF92FF921C
:100C10000F931F93DF93CF93CDB7DEB7A0970FB697
:100C2000F894DEBF0FBECDBF1C016A017B014115E8
:100C300051056105710549F4DC01ED91FC910190CC
:100C4000F081E02D60E3099554C088249924540173
:100C5000422E55246624772401E010E00C0F1D1F5E
:100C6000080D191DC701B601A30192010E941D08BC
:100C7000F80160830894811C911CA11CB11CC70160
:100C8000B601A30192010E941D08C901DA016C019D
:100C90007D01C114D104E104F104F1F681E0E82EF4
:100CA000F12CEC0EFD1EE80CF91C3E010894611CB1
:100CB000711CD501C4010197A109B1096C01C818C3
:100CC000D90814C0F601EE0DFF1D60816A3010F4E2
:100CD000605D01C0695CD101ED91FC910190F081F2
:100CE000E02DC10109950894E108F1086E147F0414
:100CF00049F7A0960FB6F894DEBF0FBECDBFCF91D7
:100D0000DF911F910F91FF90EF90DF90CF90BF90F8
:100D1000AF909F908F907F906F905F904F903F909B
:100D20002F900895EF92FF920F931F93CF93DF932D
:100D3000EC017A018B0177FF0FC0E881F981019006
:100D4000F081E02D6DE2099510950095F094E09406
:100D5000E11CF11C011D111DCE01B801A7012AE003
:100D60000E94FA05DF91CF911F910F91FF90EF90B4
:100D700008950F931F938C01AB01662757FD609573
:100D8000762F0E949206C8010E94D8051F910F91EC
:100D900008951F920F920FB60F9211242F938F93E5
:100DA0009F93AF93BF938091DE019091DF01A0915B
:100DB000E001B091E1010196A11DB11D8093DE011A
:100DC0009093DF01A093E001B093E1018091E201F3
:100DD0009091E301A091E401B091E5018050904C25
:100DE000AF4FBF4F8093E2019093E301A093E401E2
:100DF000B093E50127C08091E2019091E301A091B9
:100E0000E401B091E50180589E43A040B04080933A
:100E1000E2019093E301A093E401B093E501809196
:100E2000E6019091E701A091E801B091E9010196F6
:100E3000A11DB11D8093E6019093E701A093E80105
:100E4000B093E9018091E2019091E301A091E40166
:100E5000B091E50181589E43A040B04060F6BF913B
:100E6000AF919F918F912F910F900FBE0F901F9078
:100E70001895EF92FF920F931F937B018C018FB710
:100E8000F8944091E6015091E7016091E80170917A
:100E9000E9018FBF2FB7F8948091E6019091E701A7
:100EA000A091E801B091E9012FBF841B950BA60B1F
:100EB000B70BE816F9060A071B0760F71F910F9199
:100EC000FF90EF900895789484B5826084BD84B5D6
:100ED000816084BD85B5826085BD85B5816085BD35
:100EE000EEE6F0E0808181608083E1E8F0E08081DF
:100EF00082608083808181608083E0E8F0E080818F
:100F000081608083E1EBF0E0808184608083E0EBAE
:100F1000F0E0808181608083EAE7F0E08081846096
:100F200080838081826080838081816080838081F2
:100F3000806880831092C1000895282F30E0C90195
:100F400086569F4FFC0194912A573F4FF901849197
:100F5000882391F0E82FF0E0EE0FFF1FE859FF4FD4
:100F6000A591B491662329F48C91909589238C9353
:100F700008958C91892B8C930895482F50E0CA01D5
:100F800082559F4FFC012491CA0186569F4FFC0158
:100F900094914A575F4FFA0134913323D1F12223C0
:100FA00031F1233021F4809180008F7705C0243007
:100FB00031F4809180008F7D8093800018C02130B3
:100FC00019F484B58F7704C0223021F484B58F7D65
:100FD00084BD0DC0263021F48091B0008F7705C00C
:100FE000273029F48091B0008F7D8093B000E32FEB
:100FF000F0E0EE0FFF1FEE58FF4FA591B49166236E
:1010000029F48C91909589238C9308958C91892B48
:101010008C93089597FB092E07260AD077FD04D0FC
:1010200049D006D000201AF4709561957F4F08953D
:10103000F6F7909581959F4F0895A1E21A2EAA1B6D
:10104000BB1BFD010DC0AA1FBB1FEE1FFF1FA21778
:10105000B307E407F50720F0A21BB30BE40BF50B75
:10106000661F771F881F991F1A9469F760957095FE
:10107000809590959B01AC01BD01CF01089597FB30
:10108000092E05260ED057FD04D0D7DF0AD0001C4C
:1010900038F450954095309521953F4F4F4F5F4F15
:1010A0000895F6F790958095709561957F4F8F4FD5
:1010B0009F4F0895AA1BBB1B51E107C0AA1FBB1F6E
:1010C000A617B70710F0A61BB70B881F991F5A95D4
:1010D000A9F780959095BC01CD010895EE0FFF1FF3
:0C10E0000590F491E02D0994F894FFCFE6
:1010EC00646174612072656365697665643A200099
:1010FC00526561647921002000EE010000000000BF
:04110C000076050064
:00000001FF
